{"contracts/Marketplace.sol":{"Marketplace":{"abi":[{"anonymous":false,"inputs":[{"indexed":false,"internalType":"uint256","name":"id","type":"uint256"},{"indexed":false,"internalType":"string","name":"name","type":"string"},{"indexed":false,"internalType":"uint256","name":"price","type":"uint256"},{"indexed":false,"internalType":"address","name":"seller","type":"address"},{"indexed":false,"internalType":"address","name":"buyer","type":"address"}],"name":"ProductCreated","type":"event"},{"anonymous":false,"inputs":[{"indexed":false,"internalType":"uint256","name":"id","type":"uint256"},{"indexed":false,"internalType":"string","name":"name","type":"string"},{"indexed":false,"internalType":"uint256","name":"price","type":"uint256"},{"indexed":false,"internalType":"address","name":"seller","type":"address"},{"indexed":false,"internalType":"address","name":"buyer","type":"address"}],"name":"ProductPurchased","type":"event"},{"inputs":[{"internalType":"string","name":"_name","type":"string"},{"internalType":"uint256","name":"_price","type":"uint256"}],"name":"createProduct","outputs":[],"stateMutability":"nonpayable","type":"function"},{"inputs":[],"name":"productCount","outputs":[{"internalType":"uint256","name":"","type":"uint256"}],"stateMutability":"view","type":"function"},{"inputs":[{"internalType":"uint256","name":"","type":"uint256"}],"name":"products","outputs":[{"internalType":"uint256","name":"id","type":"uint256"},{"internalType":"string","name":"name","type":"string"},{"internalType":"uint256","name":"price","type":"uint256"},{"internalType":"address payable","name":"seller","type":"address"},{"internalType":"address","name":"buyer","type":"address"}],"stateMutability":"view","type":"function"},{"inputs":[{"internalType":"uint256","name":"_id","type":"uint256"}],"name":"purchaseProduct","outputs":[],"stateMutability":"payable","type":"function"}],"evm":{"bytecode":{"linkReferences":{},"object":"60806040526000805534801561001457600080fd5b5061135e806100246000396000f3fe60806040526004361061003f5760003560e01c806338e76a03146100445780637acc0b2014610060578063e0f6ef87146100a1578063e9300c6c146100cc575b600080fd5b61005e600480360381019061005991906108e8565b6100f5565b005b34801561006c57600080fd5b50610087600480360381019061008291906108e8565b610591565b604051610098959493929190610a16565b60405180910390f35b3480156100ad57600080fd5b506100b661068f565b6040516100c39190610a70565b60405180910390f35b3480156100d857600080fd5b506100f360048036038101906100ee9190610bc0565b610695565b005b6000600160008381526020019081526020016000206040518060a00160405290816000820154815260200160018201805461012f90610c4b565b80601f016020809104026020016040519081016040528092919081815260200182805461015b90610c4b565b80156101a85780601f1061017d576101008083540402835291602001916101a8565b820191906000526020600020905b81548152906001019060200180831161018b57829003601f168201915b50505050508152602001600282015481526020016003820160009054906101000a900473ffffffffffffffffffffffffffffffffffffffff1673ffffffffffffffffffffffffffffffffffffffff1673ffffffffffffffffffffffffffffffffffffffff1681526020016004820160009054906101000a900473ffffffffffffffffffffffffffffffffffffffff1673ffffffffffffffffffffffffffffffffffffffff1673ffffffffffffffffffffffffffffffffffffffff168152505090506000816060015190506000826000015111801561028c5750600054826000015111155b6102cb576040517f08c379a00000000000000000000000000000000000000000000000000000000081526004016102c290610cc8565b60405180910390fd5b8160400151341015610312576040517f08c379a000000000000000000000000000000000000000000000000000000000815260040161030990610d34565b60405180910390fd5b600073ffffffffffffffffffffffffffffffffffffffff16826080015173ffffffffffffffffffffffffffffffffffffffff1614610385576040517f08c379a000000000000000000000000000000000000000000000000000000000815260040161037c90610da0565b60405180910390fd5b3373ffffffffffffffffffffffffffffffffffffffff168173ffffffffffffffffffffffffffffffffffffffff16036103f3576040517f08c379a00000000000000000000000000000000000000000000000000000000081526004016103ea90610e32565b60405180910390fd5b33826080019073ffffffffffffffffffffffffffffffffffffffff16908173ffffffffffffffffffffffffffffffffffffffff1681525050816001600085815260200190815260200160002060008201518160000155602082015181600101908161045e9190610ffe565b506040820151816002015560608201518160030160006101000a81548173ffffffffffffffffffffffffffffffffffffffff021916908373ffffffffffffffffffffffffffffffffffffffff16021790555060808201518160040160006101000a81548173ffffffffffffffffffffffffffffffffffffffff021916908373ffffffffffffffffffffffffffffffffffffffff1602179055509050508073ffffffffffffffffffffffffffffffffffffffff166108fc349081150290604051600060405180830381858888f19350505050158015610540573d6000803e3d6000fd5b507f0ec3a2a7db8265630b6b34629ebe9900056ed7ebc18bebe60aa2b33fa345a5948260000151836020015184604001518433604051610584959493929190611125565b60405180910390a1505050565b60016020528060005260406000206000915090508060000154908060010180546105ba90610c4b565b80601f01602080910402602001604051908101604052809291908181526020018280546105e690610c4b565b80156106335780601f1061060857610100808354040283529160200191610633565b820191906000526020600020905b81548152906001019060200180831161061657829003601f168201915b5050505050908060020154908060030160009054906101000a900473ffffffffffffffffffffffffffffffffffffffff16908060040160009054906101000a900473ffffffffffffffffffffffffffffffffffffffff16905085565b60005481565b60008251116106d9576040517f08c379a00000000000000000000000000000000000000000000000000000000081526004016106d0906111cb565b60405180910390fd5b6000811161071c576040517f08c379a000000000000000000000000000000000000000000000000000000000815260040161071390611237565b60405180910390fd5b60008081548092919061072e90611286565b91905055506040518060a0016040528060005481526020018381526020018281526020013373ffffffffffffffffffffffffffffffffffffffff168152602001600073ffffffffffffffffffffffffffffffffffffffff1681525060016000805481526020019081526020016000206000820151816000015560208201518160010190816107bc9190610ffe565b506040820151816002015560608201518160030160006101000a81548173ffffffffffffffffffffffffffffffffffffffff021916908373ffffffffffffffffffffffffffffffffffffffff16021790555060808201518160040160006101000a81548173ffffffffffffffffffffffffffffffffffffffff021916908373ffffffffffffffffffffffffffffffffffffffff1602179055509050507f9f5b5c467d3a9a7c7170af64d0639a513c93ba9c83e358d84b49a0c9b5a8b60660005483833360006040516108929594939291906112ce565b60405180910390a15050565b6000604051905090565b600080fd5b600080fd5b6000819050919050565b6108c5816108b2565b81146108d057600080fd5b50565b6000813590506108e2816108bc565b92915050565b6000602082840312156108fe576108fd6108a8565b5b600061090c848285016108d3565b91505092915050565b61091e816108b2565b82525050565b600081519050919050565b600082825260208201905092915050565b60005b8381101561095e578082015181840152602081019050610943565b60008484015250505050565b6000601f19601f8301169050919050565b600061098682610924565b610990818561092f565b93506109a0818560208601610940565b6109a98161096a565b840191505092915050565b600073ffffffffffffffffffffffffffffffffffffffff82169050919050565b60006109df826109b4565b9050919050565b6109ef816109d4565b82525050565b6000610a00826109b4565b9050919050565b610a10816109f5565b82525050565b600060a082019050610a2b6000830188610915565b8181036020830152610a3d818761097b565b9050610a4c6040830186610915565b610a5960608301856109e6565b610a666080830184610a07565b9695505050505050565b6000602082019050610a856000830184610915565b92915050565b600080fd5b600080fd5b7f4e487b7100000000000000000000000000000000000000000000000000000000600052604160045260246000fd5b610acd8261096a565b810181811067ffffffffffffffff82111715610aec57610aeb610a95565b5b80604052505050565b6000610aff61089e565b9050610b0b8282610ac4565b919050565b600067ffffffffffffffff821115610b2b57610b2a610a95565b5b610b348261096a565b9050602081019050919050565b82818337600083830152505050565b6000610b63610b5e84610b10565b610af5565b905082815260208101848484011115610b7f57610b7e610a90565b5b610b8a848285610b41565b509392505050565b600082601f830112610ba757610ba6610a8b565b5b8135610bb7848260208601610b50565b91505092915050565b60008060408385031215610bd757610bd66108a8565b5b600083013567ffffffffffffffff811115610bf557610bf46108ad565b5b610c0185828601610b92565b9250506020610c12858286016108d3565b9150509250929050565b7f4e487b7100000000000000000000000000000000000000000000000000000000600052602260045260246000fd5b60006002820490506001821680610c6357607f821691505b602082108103610c7657610c75610c1c565b5b50919050565b7f496e76616c69642070726f647563742049440000000000000000000000000000600082015250565b6000610cb260128361092f565b9150610cbd82610c7c565b602082019050919050565b60006020820190508181036000830152610ce181610ca5565b9050919050565b7f496e73756666696369656e742045746865720000000000000000000000000000600082015250565b6000610d1e60128361092f565b9150610d2982610ce8565b602082019050919050565b60006020820190508181036000830152610d4d81610d11565b9050919050565b7f50726f6475637420616c726561647920736f6c64000000000000000000000000600082015250565b6000610d8a60148361092f565b9150610d9582610d54565b602082019050919050565b60006020820190508181036000830152610db981610d7d565b9050919050565b7f53656c6c65722063616e6e6f7420627579207468656972206f776e2070726f6460008201527f7563740000000000000000000000000000000000000000000000000000000000602082015250565b6000610e1c60238361092f565b9150610e2782610dc0565b604082019050919050565b60006020820190508181036000830152610e4b81610e0f565b9050919050565b60008190508160005260206000209050919050565b60006020601f8301049050919050565b600082821b905092915050565b600060088302610eb47fffffffffffffffffffffffffffffffffffffffffffffffffffffffffffffffff82610e77565b610ebe8683610e77565b95508019841693508086168417925050509392505050565b6000819050919050565b6000610efb610ef6610ef1846108b2565b610ed6565b6108b2565b9050919050565b6000819050919050565b610f1583610ee0565b610f29610f2182610f02565b848454610e84565b825550505050565b600090565b610f3e610f31565b610f49818484610f0c565b505050565b5b81811015610f6d57610f62600082610f36565b600181019050610f4f565b5050565b601f821115610fb257610f8381610e52565b610f8c84610e67565b81016020851015610f9b578190505b610faf610fa785610e67565b830182610f4e565b50505b505050565b600082821c905092915050565b6000610fd560001984600802610fb7565b1980831691505092915050565b6000610fee8383610fc4565b9150826002028217905092915050565b61100782610924565b67ffffffffffffffff8111156110205761101f610a95565b5b61102a8254610c4b565b611035828285610f71565b600060209050601f8311600181146110685760008415611056578287015190505b6110608582610fe2565b8655506110c8565b601f19841661107686610e52565b60005b8281101561109e57848901518255600182019150602085019450602081019050611079565b868310156110bb57848901516110b7601f891682610fc4565b8355505b6001600288020188555050505b505050505050565b60006110eb6110e66110e1846109b4565b610ed6565b6109b4565b9050919050565b60006110fd826110d0565b9050919050565b600061110f826110f2565b9050919050565b61111f81611104565b82525050565b600060a08201905061113a6000830188610915565b818103602083015261114c818761097b565b905061115b6040830186610915565b6111686060830185611116565b6111756080830184610a07565b9695505050505050565b7f50726f64756374206e616d652069732072657175697265640000000000000000600082015250565b60006111b560188361092f565b91506111c08261117f565b602082019050919050565b600060208201905081810360008301526111e4816111a8565b9050919050565b7f5072696365206d7573742062652067726561746572207468616e207a65726f00600082015250565b6000611221601f8361092f565b915061122c826111eb565b602082019050919050565b6000602082019050818103600083015261125081611214565b9050919050565b7f4e487b7100000000000000000000000000000000000000000000000000000000600052601160045260246000fd5b6000611291826108b2565b91507fffffffffffffffffffffffffffffffffffffffffffffffffffffffffffffffff82036112c3576112c2611257565b5b600182019050919050565b600060a0820190506112e36000830188610915565b81810360208301526112f5818761097b565b90506113046040830186610915565b6113116060830185610a07565b61131e6080830184610a07565b969550505050505056fea2646970667358221220d83377b999728ae3f7d6f1ec2f6406b5ba985c8f10d009988056e1f4ac9f0bc864736f6c63430008110033","opcodes":"PUSH1 0x80 PUSH1 0x40 MSTORE PUSH1 0x0 DUP1 SSTORE CALLVALUE DUP1 ISZERO PUSH2 0x14 JUMPI PUSH1 0x0 DUP1 REVERT JUMPDEST POP PUSH2 0x135E DUP1 PUSH2 0x24 PUSH1 0x0 CODECOPY PUSH1 0x0 RETURN INVALID PUSH1 0x80 PUSH1 0x40 MSTORE PUSH1 0x4 CALLDATASIZE LT PUSH2 0x3F JUMPI PUSH1 0x0 CALLDATALOAD PUSH1 0xE0 SHR DUP1 PUSH4 0x38E76A03 EQ PUSH2 0x44 JUMPI DUP1 PUSH4 0x7ACC0B20 EQ PUSH2 0x60 JUMPI DUP1 PUSH4 0xE0F6EF87 EQ PUSH2 0xA1 JUMPI DUP1 PUSH4 0xE9300C6C EQ PUSH2 0xCC JUMPI JUMPDEST PUSH1 0x0 DUP1 REVERT JUMPDEST PUSH2 0x5E PUSH1 0x4 DUP1 CALLDATASIZE SUB DUP2 ADD SWAP1 PUSH2 0x59 SWAP2 SWAP1 PUSH2 0x8E8 JUMP JUMPDEST PUSH2 0xF5 JUMP JUMPDEST STOP JUMPDEST CALLVALUE DUP1 ISZERO PUSH2 0x6C JUMPI PUSH1 0x0 DUP1 REVERT JUMPDEST POP PUSH2 0x87 PUSH1 0x4 DUP1 CALLDATASIZE SUB DUP2 ADD SWAP1 PUSH2 0x82 SWAP2 SWAP1 PUSH2 0x8E8 JUMP JUMPDEST PUSH2 0x591 JUMP JUMPDEST PUSH1 0x40 MLOAD PUSH2 0x98 SWAP6 SWAP5 SWAP4 SWAP3 SWAP2 SWAP1 PUSH2 0xA16 JUMP JUMPDEST PUSH1 0x40 MLOAD DUP1 SWAP2 SUB SWAP1 RETURN JUMPDEST CALLVALUE DUP1 ISZERO PUSH2 0xAD JUMPI PUSH1 0x0 DUP1 REVERT JUMPDEST POP PUSH2 0xB6 PUSH2 0x68F JUMP JUMPDEST PUSH1 0x40 MLOAD PUSH2 0xC3 SWAP2 SWAP1 PUSH2 0xA70 JUMP JUMPDEST PUSH1 0x40 MLOAD DUP1 SWAP2 SUB SWAP1 RETURN JUMPDEST CALLVALUE DUP1 ISZERO PUSH2 0xD8 JUMPI PUSH1 0x0 DUP1 REVERT JUMPDEST POP PUSH2 0xF3 PUSH1 0x4 DUP1 CALLDATASIZE SUB DUP2 ADD SWAP1 PUSH2 0xEE SWAP2 SWAP1 PUSH2 0xBC0 JUMP JUMPDEST PUSH2 0x695 JUMP JUMPDEST STOP JUMPDEST PUSH1 0x0 PUSH1 0x1 PUSH1 0x0 DUP4 DUP2 MSTORE PUSH1 0x20 ADD SWAP1 DUP2 MSTORE PUSH1 0x20 ADD PUSH1 0x0 KECCAK256 PUSH1 0x40 MLOAD DUP1 PUSH1 0xA0 ADD PUSH1 0x40 MSTORE SWAP1 DUP2 PUSH1 0x0 DUP3 ADD SLOAD DUP2 MSTORE PUSH1 0x20 ADD PUSH1 0x1 DUP3 ADD DUP1 SLOAD PUSH2 0x12F SWAP1 PUSH2 0xC4B JUMP JUMPDEST DUP1 PUSH1 0x1F ADD PUSH1 0x20 DUP1 SWAP2 DIV MUL PUSH1 0x20 ADD PUSH1 0x40 MLOAD SWAP1 DUP2 ADD PUSH1 0x40 MSTORE DUP1 SWAP3 SWAP2 SWAP1 DUP2 DUP2 MSTORE PUSH1 0x20 ADD DUP3 DUP1 SLOAD PUSH2 0x15B SWAP1 PUSH2 0xC4B JUMP JUMPDEST DUP1 ISZERO PUSH2 0x1A8 JUMPI DUP1 PUSH1 0x1F LT PUSH2 0x17D JUMPI PUSH2 0x100 DUP1 DUP4 SLOAD DIV MUL DUP4 MSTORE SWAP2 PUSH1 0x20 ADD SWAP2 PUSH2 0x1A8 JUMP JUMPDEST DUP3 ADD SWAP2 SWAP1 PUSH1 0x0 MSTORE PUSH1 0x20 PUSH1 0x0 KECCAK256 SWAP1 JUMPDEST DUP2 SLOAD DUP2 MSTORE SWAP1 PUSH1 0x1 ADD SWAP1 PUSH1 0x20 ADD DUP1 DUP4 GT PUSH2 0x18B JUMPI DUP3 SWAP1 SUB PUSH1 0x1F AND DUP3 ADD SWAP2 JUMPDEST POP POP POP POP POP DUP2 MSTORE PUSH1 0x20 ADD PUSH1 0x2 DUP3 ADD SLOAD DUP2 MSTORE PUSH1 0x20 ADD PUSH1 0x3 DUP3 ADD PUSH1 0x0 SWAP1 SLOAD SWAP1 PUSH2 0x100 EXP SWAP1 DIV PUSH20 0xFFFFFFFFFFFFFFFFFFFFFFFFFFFFFFFFFFFFFFFF AND PUSH20 0xFFFFFFFFFFFFFFFFFFFFFFFFFFFFFFFFFFFFFFFF AND PUSH20 0xFFFFFFFFFFFFFFFFFFFFFFFFFFFFFFFFFFFFFFFF AND DUP2 MSTORE PUSH1 0x20 ADD PUSH1 0x4 DUP3 ADD PUSH1 0x0 SWAP1 SLOAD SWAP1 PUSH2 0x100 EXP SWAP1 DIV PUSH20 0xFFFFFFFFFFFFFFFFFFFFFFFFFFFFFFFFFFFFFFFF AND PUSH20 0xFFFFFFFFFFFFFFFFFFFFFFFFFFFFFFFFFFFFFFFF AND PUSH20 0xFFFFFFFFFFFFFFFFFFFFFFFFFFFFFFFFFFFFFFFF AND DUP2 MSTORE POP POP SWAP1 POP PUSH1 0x0 DUP2 PUSH1 0x60 ADD MLOAD SWAP1 POP PUSH1 0x0 DUP3 PUSH1 0x0 ADD MLOAD GT DUP1 ISZERO PUSH2 0x28C JUMPI POP PUSH1 0x0 SLOAD DUP3 PUSH1 0x0 ADD MLOAD GT ISZERO JUMPDEST PUSH2 0x2CB JUMPI PUSH1 0x40 MLOAD PUSH32 0x8C379A000000000000000000000000000000000000000000000000000000000 DUP2 MSTORE PUSH1 0x4 ADD PUSH2 0x2C2 SWAP1 PUSH2 0xCC8 JUMP JUMPDEST PUSH1 0x40 MLOAD DUP1 SWAP2 SUB SWAP1 REVERT JUMPDEST DUP2 PUSH1 0x40 ADD MLOAD CALLVALUE LT ISZERO PUSH2 0x312 JUMPI PUSH1 0x40 MLOAD PUSH32 0x8C379A000000000000000000000000000000000000000000000000000000000 DUP2 MSTORE PUSH1 0x4 ADD PUSH2 0x309 SWAP1 PUSH2 0xD34 JUMP JUMPDEST PUSH1 0x40 MLOAD DUP1 SWAP2 SUB SWAP1 REVERT JUMPDEST PUSH1 0x0 PUSH20 0xFFFFFFFFFFFFFFFFFFFFFFFFFFFFFFFFFFFFFFFF AND DUP3 PUSH1 0x80 ADD MLOAD PUSH20 0xFFFFFFFFFFFFFFFFFFFFFFFFFFFFFFFFFFFFFFFF AND EQ PUSH2 0x385 JUMPI PUSH1 0x40 MLOAD PUSH32 0x8C379A000000000000000000000000000000000000000000000000000000000 DUP2 MSTORE PUSH1 0x4 ADD PUSH2 0x37C SWAP1 PUSH2 0xDA0 JUMP JUMPDEST PUSH1 0x40 MLOAD DUP1 SWAP2 SUB SWAP1 REVERT JUMPDEST CALLER PUSH20 0xFFFFFFFFFFFFFFFFFFFFFFFFFFFFFFFFFFFFFFFF AND DUP2 PUSH20 0xFFFFFFFFFFFFFFFFFFFFFFFFFFFFFFFFFFFFFFFF AND SUB PUSH2 0x3F3 JUMPI PUSH1 0x40 MLOAD PUSH32 0x8C379A000000000000000000000000000000000000000000000000000000000 DUP2 MSTORE PUSH1 0x4 ADD PUSH2 0x3EA SWAP1 PUSH2 0xE32 JUMP JUMPDEST PUSH1 0x40 MLOAD DUP1 SWAP2 SUB SWAP1 REVERT JUMPDEST CALLER DUP3 PUSH1 0x80 ADD SWAP1 PUSH20 0xFFFFFFFFFFFFFFFFFFFFFFFFFFFFFFFFFFFFFFFF AND SWAP1 DUP2 PUSH20 0xFFFFFFFFFFFFFFFFFFFFFFFFFFFFFFFFFFFFFFFF AND DUP2 MSTORE POP POP DUP2 PUSH1 0x1 PUSH1 0x0 DUP6 DUP2 MSTORE PUSH1 0x20 ADD SWAP1 DUP2 MSTORE PUSH1 0x20 ADD PUSH1 0x0 KECCAK256 PUSH1 0x0 DUP3 ADD MLOAD DUP2 PUSH1 0x0 ADD SSTORE PUSH1 0x20 DUP3 ADD MLOAD DUP2 PUSH1 0x1 ADD SWAP1 DUP2 PUSH2 0x45E SWAP2 SWAP1 PUSH2 0xFFE JUMP JUMPDEST POP PUSH1 0x40 DUP3 ADD MLOAD DUP2 PUSH1 0x2 ADD SSTORE PUSH1 0x60 DUP3 ADD MLOAD DUP2 PUSH1 0x3 ADD PUSH1 0x0 PUSH2 0x100 EXP DUP2 SLOAD DUP2 PUSH20 0xFFFFFFFFFFFFFFFFFFFFFFFFFFFFFFFFFFFFFFFF MUL NOT AND SWAP1 DUP4 PUSH20 0xFFFFFFFFFFFFFFFFFFFFFFFFFFFFFFFFFFFFFFFF AND MUL OR SWAP1 SSTORE POP PUSH1 0x80 DUP3 ADD MLOAD DUP2 PUSH1 0x4 ADD PUSH1 0x0 PUSH2 0x100 EXP DUP2 SLOAD DUP2 PUSH20 0xFFFFFFFFFFFFFFFFFFFFFFFFFFFFFFFFFFFFFFFF MUL NOT AND SWAP1 DUP4 PUSH20 0xFFFFFFFFFFFFFFFFFFFFFFFFFFFFFFFFFFFFFFFF AND MUL OR SWAP1 SSTORE POP SWAP1 POP POP DUP1 PUSH20 0xFFFFFFFFFFFFFFFFFFFFFFFFFFFFFFFFFFFFFFFF AND PUSH2 0x8FC CALLVALUE SWAP1 DUP2 ISZERO MUL SWAP1 PUSH1 0x40 MLOAD PUSH1 0x0 PUSH1 0x40 MLOAD DUP1 DUP4 SUB DUP2 DUP6 DUP9 DUP9 CALL SWAP4 POP POP POP POP ISZERO DUP1 ISZERO PUSH2 0x540 JUMPI RETURNDATASIZE PUSH1 0x0 DUP1 RETURNDATACOPY RETURNDATASIZE PUSH1 0x0 REVERT JUMPDEST POP PUSH32 0xEC3A2A7DB8265630B6B34629EBE9900056ED7EBC18BEBE60AA2B33FA345A594 DUP3 PUSH1 0x0 ADD MLOAD DUP4 PUSH1 0x20 ADD MLOAD DUP5 PUSH1 0x40 ADD MLOAD DUP5 CALLER PUSH1 0x40 MLOAD PUSH2 0x584 SWAP6 SWAP5 SWAP4 SWAP3 SWAP2 SWAP1 PUSH2 0x1125 JUMP JUMPDEST PUSH1 0x40 MLOAD DUP1 SWAP2 SUB SWAP1 LOG1 POP POP POP JUMP JUMPDEST PUSH1 0x1 PUSH1 0x20 MSTORE DUP1 PUSH1 0x0 MSTORE PUSH1 0x40 PUSH1 0x0 KECCAK256 PUSH1 0x0 SWAP2 POP SWAP1 POP DUP1 PUSH1 0x0 ADD SLOAD SWAP1 DUP1 PUSH1 0x1 ADD DUP1 SLOAD PUSH2 0x5BA SWAP1 PUSH2 0xC4B JUMP JUMPDEST DUP1 PUSH1 0x1F ADD PUSH1 0x20 DUP1 SWAP2 DIV MUL PUSH1 0x20 ADD PUSH1 0x40 MLOAD SWAP1 DUP2 ADD PUSH1 0x40 MSTORE DUP1 SWAP3 SWAP2 SWAP1 DUP2 DUP2 MSTORE PUSH1 0x20 ADD DUP3 DUP1 SLOAD PUSH2 0x5E6 SWAP1 PUSH2 0xC4B JUMP JUMPDEST DUP1 ISZERO PUSH2 0x633 JUMPI DUP1 PUSH1 0x1F LT PUSH2 0x608 JUMPI PUSH2 0x100 DUP1 DUP4 SLOAD DIV MUL DUP4 MSTORE SWAP2 PUSH1 0x20 ADD SWAP2 PUSH2 0x633 JUMP JUMPDEST DUP3 ADD SWAP2 SWAP1 PUSH1 0x0 MSTORE PUSH1 0x20 PUSH1 0x0 KECCAK256 SWAP1 JUMPDEST DUP2 SLOAD DUP2 MSTORE SWAP1 PUSH1 0x1 ADD SWAP1 PUSH1 0x20 ADD DUP1 DUP4 GT PUSH2 0x616 JUMPI DUP3 SWAP1 SUB PUSH1 0x1F AND DUP3 ADD SWAP2 JUMPDEST POP POP POP POP POP SWAP1 DUP1 PUSH1 0x2 ADD SLOAD SWAP1 DUP1 PUSH1 0x3 ADD PUSH1 0x0 SWAP1 SLOAD SWAP1 PUSH2 0x100 EXP SWAP1 DIV PUSH20 0xFFFFFFFFFFFFFFFFFFFFFFFFFFFFFFFFFFFFFFFF AND SWAP1 DUP1 PUSH1 0x4 ADD PUSH1 0x0 SWAP1 SLOAD SWAP1 PUSH2 0x100 EXP SWAP1 DIV PUSH20 0xFFFFFFFFFFFFFFFFFFFFFFFFFFFFFFFFFFFFFFFF AND SWAP1 POP DUP6 JUMP JUMPDEST PUSH1 0x0 SLOAD DUP2 JUMP JUMPDEST PUSH1 0x0 DUP3 MLOAD GT PUSH2 0x6D9 JUMPI PUSH1 0x40 MLOAD PUSH32 0x8C379A000000000000000000000000000000000000000000000000000000000 DUP2 MSTORE PUSH1 0x4 ADD PUSH2 0x6D0 SWAP1 PUSH2 0x11CB JUMP JUMPDEST PUSH1 0x40 MLOAD DUP1 SWAP2 SUB SWAP1 REVERT JUMPDEST PUSH1 0x0 DUP2 GT PUSH2 0x71C JUMPI PUSH1 0x40 MLOAD PUSH32 0x8C379A000000000000000000000000000000000000000000000000000000000 DUP2 MSTORE PUSH1 0x4 ADD PUSH2 0x713 SWAP1 PUSH2 0x1237 JUMP JUMPDEST PUSH1 0x40 MLOAD DUP1 SWAP2 SUB SWAP1 REVERT JUMPDEST PUSH1 0x0 DUP1 DUP2 SLOAD DUP1 SWAP3 SWAP2 SWAP1 PUSH2 0x72E SWAP1 PUSH2 0x1286 JUMP JUMPDEST SWAP2 SWAP1 POP SSTORE POP PUSH1 0x40 MLOAD DUP1 PUSH1 0xA0 ADD PUSH1 0x40 MSTORE DUP1 PUSH1 0x0 SLOAD DUP2 MSTORE PUSH1 0x20 ADD DUP4 DUP2 MSTORE PUSH1 0x20 ADD DUP3 DUP2 MSTORE PUSH1 0x20 ADD CALLER PUSH20 0xFFFFFFFFFFFFFFFFFFFFFFFFFFFFFFFFFFFFFFFF AND DUP2 MSTORE PUSH1 0x20 ADD PUSH1 0x0 PUSH20 0xFFFFFFFFFFFFFFFFFFFFFFFFFFFFFFFFFFFFFFFF AND DUP2 MSTORE POP PUSH1 0x1 PUSH1 0x0 DUP1 SLOAD DUP2 MSTORE PUSH1 0x20 ADD SWAP1 DUP2 MSTORE PUSH1 0x20 ADD PUSH1 0x0 KECCAK256 PUSH1 0x0 DUP3 ADD MLOAD DUP2 PUSH1 0x0 ADD SSTORE PUSH1 0x20 DUP3 ADD MLOAD DUP2 PUSH1 0x1 ADD SWAP1 DUP2 PUSH2 0x7BC SWAP2 SWAP1 PUSH2 0xFFE JUMP JUMPDEST POP PUSH1 0x40 DUP3 ADD MLOAD DUP2 PUSH1 0x2 ADD SSTORE PUSH1 0x60 DUP3 ADD MLOAD DUP2 PUSH1 0x3 ADD PUSH1 0x0 PUSH2 0x100 EXP DUP2 SLOAD DUP2 PUSH20 0xFFFFFFFFFFFFFFFFFFFFFFFFFFFFFFFFFFFFFFFF MUL NOT AND SWAP1 DUP4 PUSH20 0xFFFFFFFFFFFFFFFFFFFFFFFFFFFFFFFFFFFFFFFF AND MUL OR SWAP1 SSTORE POP PUSH1 0x80 DUP3 ADD MLOAD DUP2 PUSH1 0x4 ADD PUSH1 0x0 PUSH2 0x100 EXP DUP2 SLOAD DUP2 PUSH20 0xFFFFFFFFFFFFFFFFFFFFFFFFFFFFFFFFFFFFFFFF MUL NOT AND SWAP1 DUP4 PUSH20 0xFFFFFFFFFFFFFFFFFFFFFFFFFFFFFFFFFFFFFFFF AND MUL OR SWAP1 SSTORE POP SWAP1 POP POP PUSH32 0x9F5B5C467D3A9A7C7170AF64D0639A513C93BA9C83E358D84B49A0C9B5A8B606 PUSH1 0x0 SLOAD DUP4 DUP4 CALLER PUSH1 0x0 PUSH1 0x40 MLOAD PUSH2 0x892 SWAP6 SWAP5 SWAP4 SWAP3 SWAP2 SWAP1 PUSH2 0x12CE JUMP JUMPDEST PUSH1 0x40 MLOAD DUP1 SWAP2 SUB SWAP1 LOG1 POP POP JUMP JUMPDEST PUSH1 0x0 PUSH1 0x40 MLOAD SWAP1 POP SWAP1 JUMP JUMPDEST PUSH1 0x0 DUP1 REVERT JUMPDEST PUSH1 0x0 DUP1 REVERT JUMPDEST PUSH1 0x0 DUP2 SWAP1 POP SWAP2 SWAP1 POP JUMP JUMPDEST PUSH2 0x8C5 DUP2 PUSH2 0x8B2 JUMP JUMPDEST DUP2 EQ PUSH2 0x8D0 JUMPI PUSH1 0x0 DUP1 REVERT JUMPDEST POP JUMP JUMPDEST PUSH1 0x0 DUP2 CALLDATALOAD SWAP1 POP PUSH2 0x8E2 DUP2 PUSH2 0x8BC JUMP JUMPDEST SWAP3 SWAP2 POP POP JUMP JUMPDEST PUSH1 0x0 PUSH1 0x20 DUP3 DUP5 SUB SLT ISZERO PUSH2 0x8FE JUMPI PUSH2 0x8FD PUSH2 0x8A8 JUMP JUMPDEST JUMPDEST PUSH1 0x0 PUSH2 0x90C DUP5 DUP3 DUP6 ADD PUSH2 0x8D3 JUMP JUMPDEST SWAP2 POP POP SWAP3 SWAP2 POP POP JUMP JUMPDEST PUSH2 0x91E DUP2 PUSH2 0x8B2 JUMP JUMPDEST DUP3 MSTORE POP POP JUMP JUMPDEST PUSH1 0x0 DUP2 MLOAD SWAP1 POP SWAP2 SWAP1 POP JUMP JUMPDEST PUSH1 0x0 DUP3 DUP3 MSTORE PUSH1 0x20 DUP3 ADD SWAP1 POP SWAP3 SWAP2 POP POP JUMP JUMPDEST PUSH1 0x0 JUMPDEST DUP4 DUP2 LT ISZERO PUSH2 0x95E JUMPI DUP1 DUP3 ADD MLOAD DUP2 DUP5 ADD MSTORE PUSH1 0x20 DUP2 ADD SWAP1 POP PUSH2 0x943 JUMP JUMPDEST PUSH1 0x0 DUP5 DUP5 ADD MSTORE POP POP POP POP JUMP JUMPDEST PUSH1 0x0 PUSH1 0x1F NOT PUSH1 0x1F DUP4 ADD AND SWAP1 POP SWAP2 SWAP1 POP JUMP JUMPDEST PUSH1 0x0 PUSH2 0x986 DUP3 PUSH2 0x924 JUMP JUMPDEST PUSH2 0x990 DUP2 DUP6 PUSH2 0x92F JUMP JUMPDEST SWAP4 POP PUSH2 0x9A0 DUP2 DUP6 PUSH1 0x20 DUP7 ADD PUSH2 0x940 JUMP JUMPDEST PUSH2 0x9A9 DUP2 PUSH2 0x96A JUMP JUMPDEST DUP5 ADD SWAP2 POP POP SWAP3 SWAP2 POP POP JUMP JUMPDEST PUSH1 0x0 PUSH20 0xFFFFFFFFFFFFFFFFFFFFFFFFFFFFFFFFFFFFFFFF DUP3 AND SWAP1 POP SWAP2 SWAP1 POP JUMP JUMPDEST PUSH1 0x0 PUSH2 0x9DF DUP3 PUSH2 0x9B4 JUMP JUMPDEST SWAP1 POP SWAP2 SWAP1 POP JUMP JUMPDEST PUSH2 0x9EF DUP2 PUSH2 0x9D4 JUMP JUMPDEST DUP3 MSTORE POP POP JUMP JUMPDEST PUSH1 0x0 PUSH2 0xA00 DUP3 PUSH2 0x9B4 JUMP JUMPDEST SWAP1 POP SWAP2 SWAP1 POP JUMP JUMPDEST PUSH2 0xA10 DUP2 PUSH2 0x9F5 JUMP JUMPDEST DUP3 MSTORE POP POP JUMP JUMPDEST PUSH1 0x0 PUSH1 0xA0 DUP3 ADD SWAP1 POP PUSH2 0xA2B PUSH1 0x0 DUP4 ADD DUP9 PUSH2 0x915 JUMP JUMPDEST DUP2 DUP2 SUB PUSH1 0x20 DUP4 ADD MSTORE PUSH2 0xA3D DUP2 DUP8 PUSH2 0x97B JUMP JUMPDEST SWAP1 POP PUSH2 0xA4C PUSH1 0x40 DUP4 ADD DUP7 PUSH2 0x915 JUMP JUMPDEST PUSH2 0xA59 PUSH1 0x60 DUP4 ADD DUP6 PUSH2 0x9E6 JUMP JUMPDEST PUSH2 0xA66 PUSH1 0x80 DUP4 ADD DUP5 PUSH2 0xA07 JUMP JUMPDEST SWAP7 SWAP6 POP POP POP POP POP POP JUMP JUMPDEST PUSH1 0x0 PUSH1 0x20 DUP3 ADD SWAP1 POP PUSH2 0xA85 PUSH1 0x0 DUP4 ADD DUP5 PUSH2 0x915 JUMP JUMPDEST SWAP3 SWAP2 POP POP JUMP JUMPDEST PUSH1 0x0 DUP1 REVERT JUMPDEST PUSH1 0x0 DUP1 REVERT JUMPDEST PUSH32 0x4E487B7100000000000000000000000000000000000000000000000000000000 PUSH1 0x0 MSTORE PUSH1 0x41 PUSH1 0x4 MSTORE PUSH1 0x24 PUSH1 0x0 REVERT JUMPDEST PUSH2 0xACD DUP3 PUSH2 0x96A JUMP JUMPDEST DUP2 ADD DUP2 DUP2 LT PUSH8 0xFFFFFFFFFFFFFFFF DUP3 GT OR ISZERO PUSH2 0xAEC JUMPI PUSH2 0xAEB PUSH2 0xA95 JUMP JUMPDEST JUMPDEST DUP1 PUSH1 0x40 MSTORE POP POP POP JUMP JUMPDEST PUSH1 0x0 PUSH2 0xAFF PUSH2 0x89E JUMP JUMPDEST SWAP1 POP PUSH2 0xB0B DUP3 DUP3 PUSH2 0xAC4 JUMP JUMPDEST SWAP2 SWAP1 POP JUMP JUMPDEST PUSH1 0x0 PUSH8 0xFFFFFFFFFFFFFFFF DUP3 GT ISZERO PUSH2 0xB2B JUMPI PUSH2 0xB2A PUSH2 0xA95 JUMP JUMPDEST JUMPDEST PUSH2 0xB34 DUP3 PUSH2 0x96A JUMP JUMPDEST SWAP1 POP PUSH1 0x20 DUP2 ADD SWAP1 POP SWAP2 SWAP1 POP JUMP JUMPDEST DUP3 DUP2 DUP4 CALLDATACOPY PUSH1 0x0 DUP4 DUP4 ADD MSTORE POP POP POP JUMP JUMPDEST PUSH1 0x0 PUSH2 0xB63 PUSH2 0xB5E DUP5 PUSH2 0xB10 JUMP JUMPDEST PUSH2 0xAF5 JUMP JUMPDEST SWAP1 POP DUP3 DUP2 MSTORE PUSH1 0x20 DUP2 ADD DUP5 DUP5 DUP5 ADD GT ISZERO PUSH2 0xB7F JUMPI PUSH2 0xB7E PUSH2 0xA90 JUMP JUMPDEST JUMPDEST PUSH2 0xB8A DUP5 DUP3 DUP6 PUSH2 0xB41 JUMP JUMPDEST POP SWAP4 SWAP3 POP POP POP JUMP JUMPDEST PUSH1 0x0 DUP3 PUSH1 0x1F DUP4 ADD SLT PUSH2 0xBA7 JUMPI PUSH2 0xBA6 PUSH2 0xA8B JUMP JUMPDEST JUMPDEST DUP2 CALLDATALOAD PUSH2 0xBB7 DUP5 DUP3 PUSH1 0x20 DUP7 ADD PUSH2 0xB50 JUMP JUMPDEST SWAP2 POP POP SWAP3 SWAP2 POP POP JUMP JUMPDEST PUSH1 0x0 DUP1 PUSH1 0x40 DUP4 DUP6 SUB SLT ISZERO PUSH2 0xBD7 JUMPI PUSH2 0xBD6 PUSH2 0x8A8 JUMP JUMPDEST JUMPDEST PUSH1 0x0 DUP4 ADD CALLDATALOAD PUSH8 0xFFFFFFFFFFFFFFFF DUP2 GT ISZERO PUSH2 0xBF5 JUMPI PUSH2 0xBF4 PUSH2 0x8AD JUMP JUMPDEST JUMPDEST PUSH2 0xC01 DUP6 DUP3 DUP7 ADD PUSH2 0xB92 JUMP JUMPDEST SWAP3 POP POP PUSH1 0x20 PUSH2 0xC12 DUP6 DUP3 DUP7 ADD PUSH2 0x8D3 JUMP JUMPDEST SWAP2 POP POP SWAP3 POP SWAP3 SWAP1 POP JUMP JUMPDEST PUSH32 0x4E487B7100000000000000000000000000000000000000000000000000000000 PUSH1 0x0 MSTORE PUSH1 0x22 PUSH1 0x4 MSTORE PUSH1 0x24 PUSH1 0x0 REVERT JUMPDEST PUSH1 0x0 PUSH1 0x2 DUP3 DIV SWAP1 POP PUSH1 0x1 DUP3 AND DUP1 PUSH2 0xC63 JUMPI PUSH1 0x7F DUP3 AND SWAP2 POP JUMPDEST PUSH1 0x20 DUP3 LT DUP2 SUB PUSH2 0xC76 JUMPI PUSH2 0xC75 PUSH2 0xC1C JUMP JUMPDEST JUMPDEST POP SWAP2 SWAP1 POP JUMP JUMPDEST PUSH32 0x496E76616C69642070726F647563742049440000000000000000000000000000 PUSH1 0x0 DUP3 ADD MSTORE POP JUMP JUMPDEST PUSH1 0x0 PUSH2 0xCB2 PUSH1 0x12 DUP4 PUSH2 0x92F JUMP JUMPDEST SWAP2 POP PUSH2 0xCBD DUP3 PUSH2 0xC7C JUMP JUMPDEST PUSH1 0x20 DUP3 ADD SWAP1 POP SWAP2 SWAP1 POP JUMP JUMPDEST PUSH1 0x0 PUSH1 0x20 DUP3 ADD SWAP1 POP DUP2 DUP2 SUB PUSH1 0x0 DUP4 ADD MSTORE PUSH2 0xCE1 DUP2 PUSH2 0xCA5 JUMP JUMPDEST SWAP1 POP SWAP2 SWAP1 POP JUMP JUMPDEST PUSH32 0x496E73756666696369656E742045746865720000000000000000000000000000 PUSH1 0x0 DUP3 ADD MSTORE POP JUMP JUMPDEST PUSH1 0x0 PUSH2 0xD1E PUSH1 0x12 DUP4 PUSH2 0x92F JUMP JUMPDEST SWAP2 POP PUSH2 0xD29 DUP3 PUSH2 0xCE8 JUMP JUMPDEST PUSH1 0x20 DUP3 ADD SWAP1 POP SWAP2 SWAP1 POP JUMP JUMPDEST PUSH1 0x0 PUSH1 0x20 DUP3 ADD SWAP1 POP DUP2 DUP2 SUB PUSH1 0x0 DUP4 ADD MSTORE PUSH2 0xD4D DUP2 PUSH2 0xD11 JUMP JUMPDEST SWAP1 POP SWAP2 SWAP1 POP JUMP JUMPDEST PUSH32 0x50726F6475637420616C726561647920736F6C64000000000000000000000000 PUSH1 0x0 DUP3 ADD MSTORE POP JUMP JUMPDEST PUSH1 0x0 PUSH2 0xD8A PUSH1 0x14 DUP4 PUSH2 0x92F JUMP JUMPDEST SWAP2 POP PUSH2 0xD95 DUP3 PUSH2 0xD54 JUMP JUMPDEST PUSH1 0x20 DUP3 ADD SWAP1 POP SWAP2 SWAP1 POP JUMP JUMPDEST PUSH1 0x0 PUSH1 0x20 DUP3 ADD SWAP1 POP DUP2 DUP2 SUB PUSH1 0x0 DUP4 ADD MSTORE PUSH2 0xDB9 DUP2 PUSH2 0xD7D JUMP JUMPDEST SWAP1 POP SWAP2 SWAP1 POP JUMP JUMPDEST PUSH32 0x53656C6C65722063616E6E6F7420627579207468656972206F776E2070726F64 PUSH1 0x0 DUP3 ADD MSTORE PUSH32 0x7563740000000000000000000000000000000000000000000000000000000000 PUSH1 0x20 DUP3 ADD MSTORE POP JUMP JUMPDEST PUSH1 0x0 PUSH2 0xE1C PUSH1 0x23 DUP4 PUSH2 0x92F JUMP JUMPDEST SWAP2 POP PUSH2 0xE27 DUP3 PUSH2 0xDC0 JUMP JUMPDEST PUSH1 0x40 DUP3 ADD SWAP1 POP SWAP2 SWAP1 POP JUMP JUMPDEST PUSH1 0x0 PUSH1 0x20 DUP3 ADD SWAP1 POP DUP2 DUP2 SUB PUSH1 0x0 DUP4 ADD MSTORE PUSH2 0xE4B DUP2 PUSH2 0xE0F JUMP JUMPDEST SWAP1 POP SWAP2 SWAP1 POP JUMP JUMPDEST PUSH1 0x0 DUP2 SWAP1 POP DUP2 PUSH1 0x0 MSTORE PUSH1 0x20 PUSH1 0x0 KECCAK256 SWAP1 POP SWAP2 SWAP1 POP JUMP JUMPDEST PUSH1 0x0 PUSH1 0x20 PUSH1 0x1F DUP4 ADD DIV SWAP1 POP SWAP2 SWAP1 POP JUMP JUMPDEST PUSH1 0x0 DUP3 DUP3 SHL SWAP1 POP SWAP3 SWAP2 POP POP JUMP JUMPDEST PUSH1 0x0 PUSH1 0x8 DUP4 MUL PUSH2 0xEB4 PUSH32 0xFFFFFFFFFFFFFFFFFFFFFFFFFFFFFFFFFFFFFFFFFFFFFFFFFFFFFFFFFFFFFFFF DUP3 PUSH2 0xE77 JUMP JUMPDEST PUSH2 0xEBE DUP7 DUP4 PUSH2 0xE77 JUMP JUMPDEST SWAP6 POP DUP1 NOT DUP5 AND SWAP4 POP DUP1 DUP7 AND DUP5 OR SWAP3 POP POP POP SWAP4 SWAP3 POP POP POP JUMP JUMPDEST PUSH1 0x0 DUP2 SWAP1 POP SWAP2 SWAP1 POP JUMP JUMPDEST PUSH1 0x0 PUSH2 0xEFB PUSH2 0xEF6 PUSH2 0xEF1 DUP5 PUSH2 0x8B2 JUMP JUMPDEST PUSH2 0xED6 JUMP JUMPDEST PUSH2 0x8B2 JUMP JUMPDEST SWAP1 POP SWAP2 SWAP1 POP JUMP JUMPDEST PUSH1 0x0 DUP2 SWAP1 POP SWAP2 SWAP1 POP JUMP JUMPDEST PUSH2 0xF15 DUP4 PUSH2 0xEE0 JUMP JUMPDEST PUSH2 0xF29 PUSH2 0xF21 DUP3 PUSH2 0xF02 JUMP JUMPDEST DUP5 DUP5 SLOAD PUSH2 0xE84 JUMP JUMPDEST DUP3 SSTORE POP POP POP POP JUMP JUMPDEST PUSH1 0x0 SWAP1 JUMP JUMPDEST PUSH2 0xF3E PUSH2 0xF31 JUMP JUMPDEST PUSH2 0xF49 DUP2 DUP5 DUP5 PUSH2 0xF0C JUMP JUMPDEST POP POP POP JUMP JUMPDEST JUMPDEST DUP2 DUP2 LT ISZERO PUSH2 0xF6D JUMPI PUSH2 0xF62 PUSH1 0x0 DUP3 PUSH2 0xF36 JUMP JUMPDEST PUSH1 0x1 DUP2 ADD SWAP1 POP PUSH2 0xF4F JUMP JUMPDEST POP POP JUMP JUMPDEST PUSH1 0x1F DUP3 GT ISZERO PUSH2 0xFB2 JUMPI PUSH2 0xF83 DUP2 PUSH2 0xE52 JUMP JUMPDEST PUSH2 0xF8C DUP5 PUSH2 0xE67 JUMP JUMPDEST DUP2 ADD PUSH1 0x20 DUP6 LT ISZERO PUSH2 0xF9B JUMPI DUP2 SWAP1 POP JUMPDEST PUSH2 0xFAF PUSH2 0xFA7 DUP6 PUSH2 0xE67 JUMP JUMPDEST DUP4 ADD DUP3 PUSH2 0xF4E JUMP JUMPDEST POP POP JUMPDEST POP POP POP JUMP JUMPDEST PUSH1 0x0 DUP3 DUP3 SHR SWAP1 POP SWAP3 SWAP2 POP POP JUMP JUMPDEST PUSH1 0x0 PUSH2 0xFD5 PUSH1 0x0 NOT DUP5 PUSH1 0x8 MUL PUSH2 0xFB7 JUMP JUMPDEST NOT DUP1 DUP4 AND SWAP2 POP POP SWAP3 SWAP2 POP POP JUMP JUMPDEST PUSH1 0x0 PUSH2 0xFEE DUP4 DUP4 PUSH2 0xFC4 JUMP JUMPDEST SWAP2 POP DUP3 PUSH1 0x2 MUL DUP3 OR SWAP1 POP SWAP3 SWAP2 POP POP JUMP JUMPDEST PUSH2 0x1007 DUP3 PUSH2 0x924 JUMP JUMPDEST PUSH8 0xFFFFFFFFFFFFFFFF DUP2 GT ISZERO PUSH2 0x1020 JUMPI PUSH2 0x101F PUSH2 0xA95 JUMP JUMPDEST JUMPDEST PUSH2 0x102A DUP3 SLOAD PUSH2 0xC4B JUMP JUMPDEST PUSH2 0x1035 DUP3 DUP3 DUP6 PUSH2 0xF71 JUMP JUMPDEST PUSH1 0x0 PUSH1 0x20 SWAP1 POP PUSH1 0x1F DUP4 GT PUSH1 0x1 DUP2 EQ PUSH2 0x1068 JUMPI PUSH1 0x0 DUP5 ISZERO PUSH2 0x1056 JUMPI DUP3 DUP8 ADD MLOAD SWAP1 POP JUMPDEST PUSH2 0x1060 DUP6 DUP3 PUSH2 0xFE2 JUMP JUMPDEST DUP7 SSTORE POP PUSH2 0x10C8 JUMP JUMPDEST PUSH1 0x1F NOT DUP5 AND PUSH2 0x1076 DUP7 PUSH2 0xE52 JUMP JUMPDEST PUSH1 0x0 JUMPDEST DUP3 DUP2 LT ISZERO PUSH2 0x109E JUMPI DUP5 DUP10 ADD MLOAD DUP3 SSTORE PUSH1 0x1 DUP3 ADD SWAP2 POP PUSH1 0x20 DUP6 ADD SWAP5 POP PUSH1 0x20 DUP2 ADD SWAP1 POP PUSH2 0x1079 JUMP JUMPDEST DUP7 DUP4 LT ISZERO PUSH2 0x10BB JUMPI DUP5 DUP10 ADD MLOAD PUSH2 0x10B7 PUSH1 0x1F DUP10 AND DUP3 PUSH2 0xFC4 JUMP JUMPDEST DUP4 SSTORE POP JUMPDEST PUSH1 0x1 PUSH1 0x2 DUP9 MUL ADD DUP9 SSTORE POP POP POP JUMPDEST POP POP POP POP POP POP JUMP JUMPDEST PUSH1 0x0 PUSH2 0x10EB PUSH2 0x10E6 PUSH2 0x10E1 DUP5 PUSH2 0x9B4 JUMP JUMPDEST PUSH2 0xED6 JUMP JUMPDEST PUSH2 0x9B4 JUMP JUMPDEST SWAP1 POP SWAP2 SWAP1 POP JUMP JUMPDEST PUSH1 0x0 PUSH2 0x10FD DUP3 PUSH2 0x10D0 JUMP JUMPDEST SWAP1 POP SWAP2 SWAP1 POP JUMP JUMPDEST PUSH1 0x0 PUSH2 0x110F DUP3 PUSH2 0x10F2 JUMP JUMPDEST SWAP1 POP SWAP2 SWAP1 POP JUMP JUMPDEST PUSH2 0x111F DUP2 PUSH2 0x1104 JUMP JUMPDEST DUP3 MSTORE POP POP JUMP JUMPDEST PUSH1 0x0 PUSH1 0xA0 DUP3 ADD SWAP1 POP PUSH2 0x113A PUSH1 0x0 DUP4 ADD DUP9 PUSH2 0x915 JUMP JUMPDEST DUP2 DUP2 SUB PUSH1 0x20 DUP4 ADD MSTORE PUSH2 0x114C DUP2 DUP8 PUSH2 0x97B JUMP JUMPDEST SWAP1 POP PUSH2 0x115B PUSH1 0x40 DUP4 ADD DUP7 PUSH2 0x915 JUMP JUMPDEST PUSH2 0x1168 PUSH1 0x60 DUP4 ADD DUP6 PUSH2 0x1116 JUMP JUMPDEST PUSH2 0x1175 PUSH1 0x80 DUP4 ADD DUP5 PUSH2 0xA07 JUMP JUMPDEST SWAP7 SWAP6 POP POP POP POP POP POP JUMP JUMPDEST PUSH32 0x50726F64756374206E616D652069732072657175697265640000000000000000 PUSH1 0x0 DUP3 ADD MSTORE POP JUMP JUMPDEST PUSH1 0x0 PUSH2 0x11B5 PUSH1 0x18 DUP4 PUSH2 0x92F JUMP JUMPDEST SWAP2 POP PUSH2 0x11C0 DUP3 PUSH2 0x117F JUMP JUMPDEST PUSH1 0x20 DUP3 ADD SWAP1 POP SWAP2 SWAP1 POP JUMP JUMPDEST PUSH1 0x0 PUSH1 0x20 DUP3 ADD SWAP1 POP DUP2 DUP2 SUB PUSH1 0x0 DUP4 ADD MSTORE PUSH2 0x11E4 DUP2 PUSH2 0x11A8 JUMP JUMPDEST SWAP1 POP SWAP2 SWAP1 POP JUMP JUMPDEST PUSH32 0x5072696365206D7573742062652067726561746572207468616E207A65726F00 PUSH1 0x0 DUP3 ADD MSTORE POP JUMP JUMPDEST PUSH1 0x0 PUSH2 0x1221 PUSH1 0x1F DUP4 PUSH2 0x92F JUMP JUMPDEST SWAP2 POP PUSH2 0x122C DUP3 PUSH2 0x11EB JUMP JUMPDEST PUSH1 0x20 DUP3 ADD SWAP1 POP SWAP2 SWAP1 POP JUMP JUMPDEST PUSH1 0x0 PUSH1 0x20 DUP3 ADD SWAP1 POP DUP2 DUP2 SUB PUSH1 0x0 DUP4 ADD MSTORE PUSH2 0x1250 DUP2 PUSH2 0x1214 JUMP JUMPDEST SWAP1 POP SWAP2 SWAP1 POP JUMP JUMPDEST PUSH32 0x4E487B7100000000000000000000000000000000000000000000000000000000 PUSH1 0x0 MSTORE PUSH1 0x11 PUSH1 0x4 MSTORE PUSH1 0x24 PUSH1 0x0 REVERT JUMPDEST PUSH1 0x0 PUSH2 0x1291 DUP3 PUSH2 0x8B2 JUMP JUMPDEST SWAP2 POP PUSH32 0xFFFFFFFFFFFFFFFFFFFFFFFFFFFFFFFFFFFFFFFFFFFFFFFFFFFFFFFFFFFFFFFF DUP3 SUB PUSH2 0x12C3 JUMPI PUSH2 0x12C2 PUSH2 0x1257 JUMP JUMPDEST JUMPDEST PUSH1 0x1 DUP3 ADD SWAP1 POP SWAP2 SWAP1 POP JUMP JUMPDEST PUSH1 0x0 PUSH1 0xA0 DUP3 ADD SWAP1 POP PUSH2 0x12E3 PUSH1 0x0 DUP4 ADD DUP9 PUSH2 0x915 JUMP JUMPDEST DUP2 DUP2 SUB PUSH1 0x20 DUP4 ADD MSTORE PUSH2 0x12F5 DUP2 DUP8 PUSH2 0x97B JUMP JUMPDEST SWAP1 POP PUSH2 0x1304 PUSH1 0x40 DUP4 ADD DUP7 PUSH2 0x915 JUMP JUMPDEST PUSH2 0x1311 PUSH1 0x60 DUP4 ADD DUP6 PUSH2 0xA07 JUMP JUMPDEST PUSH2 0x131E PUSH1 0x80 DUP4 ADD DUP5 PUSH2 0xA07 JUMP JUMPDEST SWAP7 SWAP6 POP POP POP POP POP POP JUMP INVALID LOG2 PUSH5 0x6970667358 0x22 SLT KECCAK256 0xD8 CALLER PUSH24 0xB999728AE3F7D6F1EC2F6406B5BA985C8F10D009988056E1 DELEGATECALL 0xAC SWAP16 SIGNEXTEND 0xC8 PUSH5 0x736F6C6343 STOP ADDMOD GT STOP CALLER "},"methodIdentifiers":{"createProduct(string,uint256)":"e9300c6c","productCount()":"e0f6ef87","products(uint256)":"7acc0b20","purchaseProduct(uint256)":"38e76a03"}}}}}