{
  "_format": "hh-sol-artifact-1",
  "contractName": "Marketplace",
  "sourceName": "contracts/Marketplace.sol",
  "abi": [
    {
      "anonymous": false,
      "inputs": [
        {
          "indexed": false,
          "internalType": "uint256",
          "name": "id",
          "type": "uint256"
        },
        {
          "indexed": false,
          "internalType": "string",
          "name": "name",
          "type": "string"
        },
        {
          "indexed": false,
          "internalType": "uint256",
          "name": "price",
          "type": "uint256"
        },
        {
          "indexed": false,
          "internalType": "address",
          "name": "seller",
          "type": "address"
        },
        {
          "indexed": false,
          "internalType": "address",
          "name": "buyer",
          "type": "address"
        }
      ],
      "name": "ProductCreated",
      "type": "event"
    },
    {
      "anonymous": false,
      "inputs": [
        {
          "indexed": false,
          "internalType": "uint256",
          "name": "id",
          "type": "uint256"
        },
        {
          "indexed": false,
          "internalType": "string",
          "name": "name",
          "type": "string"
        },
        {
          "indexed": false,
          "internalType": "uint256",
          "name": "price",
          "type": "uint256"
        },
        {
          "indexed": false,
          "internalType": "address",
          "name": "seller",
          "type": "address"
        },
        {
          "indexed": false,
          "internalType": "address",
          "name": "buyer",
          "type": "address"
        }
      ],
      "name": "ProductPurchased",
      "type": "event"
    },
    {
      "inputs": [
        {
          "internalType": "string",
          "name": "_name",
          "type": "string"
        },
        {
          "internalType": "uint256",
          "name": "_price",
          "type": "uint256"
        }
      ],
      "name": "createProduct",
      "outputs": [],
      "stateMutability": "nonpayable",
      "type": "function"
    },
    {
      "inputs": [],
      "name": "productCount",
      "outputs": [
        {
          "internalType": "uint256",
          "name": "",
          "type": "uint256"
        }
      ],
      "stateMutability": "view",
      "type": "function"
    },
    {
      "inputs": [
        {
          "internalType": "uint256",
          "name": "",
          "type": "uint256"
        }
      ],
      "name": "products",
      "outputs": [
        {
          "internalType": "uint256",
          "name": "id",
          "type": "uint256"
        },
        {
          "internalType": "string",
          "name": "name",
          "type": "string"
        },
        {
          "internalType": "uint256",
          "name": "price",
          "type": "uint256"
        },
        {
          "internalType": "address payable",
          "name": "seller",
          "type": "address"
        },
        {
          "internalType": "address",
          "name": "buyer",
          "type": "address"
        }
      ],
      "stateMutability": "view",
      "type": "function"
    },
    {
      "inputs": [
        {
          "internalType": "uint256",
          "name": "_id",
          "type": "uint256"
        }
      ],
      "name": "purchaseProduct",
      "outputs": [],
      "stateMutability": "payable",
      "type": "function"
    }
  ],
  "bytecode": "0x60806040526000805534801561001457600080fd5b5061135e806100246000396000f3fe60806040526004361061003f5760003560e01c806338e76a03146100445780637acc0b2014610060578063e0f6ef87146100a1578063e9300c6c146100cc575b600080fd5b61005e600480360381019061005991906108e8565b6100f5565b005b34801561006c57600080fd5b50610087600480360381019061008291906108e8565b610591565b604051610098959493929190610a16565b60405180910390f35b3480156100ad57600080fd5b506100b661068f565b6040516100c39190610a70565b60405180910390f35b3480156100d857600080fd5b506100f360048036038101906100ee9190610bc0565b610695565b005b6000600160008381526020019081526020016000206040518060a00160405290816000820154815260200160018201805461012f90610c4b565b80601f016020809104026020016040519081016040528092919081815260200182805461015b90610c4b565b80156101a85780601f1061017d576101008083540402835291602001916101a8565b820191906000526020600020905b81548152906001019060200180831161018b57829003601f168201915b50505050508152602001600282015481526020016003820160009054906101000a900473ffffffffffffffffffffffffffffffffffffffff1673ffffffffffffffffffffffffffffffffffffffff1673ffffffffffffffffffffffffffffffffffffffff1681526020016004820160009054906101000a900473ffffffffffffffffffffffffffffffffffffffff1673ffffffffffffffffffffffffffffffffffffffff1673ffffffffffffffffffffffffffffffffffffffff168152505090506000816060015190506000826000015111801561028c5750600054826000015111155b6102cb576040517f08c379a00000000000000000000000000000000000000000000000000000000081526004016102c290610cc8565b60405180910390fd5b8160400151341015610312576040517f08c379a000000000000000000000000000000000000000000000000000000000815260040161030990610d34565b60405180910390fd5b600073ffffffffffffffffffffffffffffffffffffffff16826080015173ffffffffffffffffffffffffffffffffffffffff1614610385576040517f08c379a000000000000000000000000000000000000000000000000000000000815260040161037c90610da0565b60405180910390fd5b3373ffffffffffffffffffffffffffffffffffffffff168173ffffffffffffffffffffffffffffffffffffffff16036103f3576040517f08c379a00000000000000000000000000000000000000000000000000000000081526004016103ea90610e32565b60405180910390fd5b33826080019073ffffffffffffffffffffffffffffffffffffffff16908173ffffffffffffffffffffffffffffffffffffffff1681525050816001600085815260200190815260200160002060008201518160000155602082015181600101908161045e9190610ffe565b506040820151816002015560608201518160030160006101000a81548173ffffffffffffffffffffffffffffffffffffffff021916908373ffffffffffffffffffffffffffffffffffffffff16021790555060808201518160040160006101000a81548173ffffffffffffffffffffffffffffffffffffffff021916908373ffffffffffffffffffffffffffffffffffffffff1602179055509050508073ffffffffffffffffffffffffffffffffffffffff166108fc349081150290604051600060405180830381858888f19350505050158015610540573d6000803e3d6000fd5b507f0ec3a2a7db8265630b6b34629ebe9900056ed7ebc18bebe60aa2b33fa345a5948260000151836020015184604001518433604051610584959493929190611125565b60405180910390a1505050565b60016020528060005260406000206000915090508060000154908060010180546105ba90610c4b565b80601f01602080910402602001604051908101604052809291908181526020018280546105e690610c4b565b80156106335780601f1061060857610100808354040283529160200191610633565b820191906000526020600020905b81548152906001019060200180831161061657829003601f168201915b5050505050908060020154908060030160009054906101000a900473ffffffffffffffffffffffffffffffffffffffff16908060040160009054906101000a900473ffffffffffffffffffffffffffffffffffffffff16905085565b60005481565b60008251116106d9576040517f08c379a00000000000000000000000000000000000000000000000000000000081526004016106d0906111cb565b60405180910390fd5b6000811161071c576040517f08c379a000000000000000000000000000000000000000000000000000000000815260040161071390611237565b60405180910390fd5b60008081548092919061072e90611286565b91905055506040518060a0016040528060005481526020018381526020018281526020013373ffffffffffffffffffffffffffffffffffffffff168152602001600073ffffffffffffffffffffffffffffffffffffffff1681525060016000805481526020019081526020016000206000820151816000015560208201518160010190816107bc9190610ffe565b506040820151816002015560608201518160030160006101000a81548173ffffffffffffffffffffffffffffffffffffffff021916908373ffffffffffffffffffffffffffffffffffffffff16021790555060808201518160040160006101000a81548173ffffffffffffffffffffffffffffffffffffffff021916908373ffffffffffffffffffffffffffffffffffffffff1602179055509050507f9f5b5c467d3a9a7c7170af64d0639a513c93ba9c83e358d84b49a0c9b5a8b60660005483833360006040516108929594939291906112ce565b60405180910390a15050565b6000604051905090565b600080fd5b600080fd5b6000819050919050565b6108c5816108b2565b81146108d057600080fd5b50565b6000813590506108e2816108bc565b92915050565b6000602082840312156108fe576108fd6108a8565b5b600061090c848285016108d3565b91505092915050565b61091e816108b2565b82525050565b600081519050919050565b600082825260208201905092915050565b60005b8381101561095e578082015181840152602081019050610943565b60008484015250505050565b6000601f19601f8301169050919050565b600061098682610924565b610990818561092f565b93506109a0818560208601610940565b6109a98161096a565b840191505092915050565b600073ffffffffffffffffffffffffffffffffffffffff82169050919050565b60006109df826109b4565b9050919050565b6109ef816109d4565b82525050565b6000610a00826109b4565b9050919050565b610a10816109f5565b82525050565b600060a082019050610a2b6000830188610915565b8181036020830152610a3d818761097b565b9050610a4c6040830186610915565b610a5960608301856109e6565b610a666080830184610a07565b9695505050505050565b6000602082019050610a856000830184610915565b92915050565b600080fd5b600080fd5b7f4e487b7100000000000000000000000000000000000000000000000000000000600052604160045260246000fd5b610acd8261096a565b810181811067ffffffffffffffff82111715610aec57610aeb610a95565b5b80604052505050565b6000610aff61089e565b9050610b0b8282610ac4565b919050565b600067ffffffffffffffff821115610b2b57610b2a610a95565b5b610b348261096a565b9050602081019050919050565b82818337600083830152505050565b6000610b63610b5e84610b10565b610af5565b905082815260208101848484011115610b7f57610b7e610a90565b5b610b8a848285610b41565b509392505050565b600082601f830112610ba757610ba6610a8b565b5b8135610bb7848260208601610b50565b91505092915050565b60008060408385031215610bd757610bd66108a8565b5b600083013567ffffffffffffffff811115610bf557610bf46108ad565b5b610c0185828601610b92565b9250506020610c12858286016108d3565b9150509250929050565b7f4e487b7100000000000000000000000000000000000000000000000000000000600052602260045260246000fd5b60006002820490506001821680610c6357607f821691505b602082108103610c7657610c75610c1c565b5b50919050565b7f496e76616c69642070726f647563742049440000000000000000000000000000600082015250565b6000610cb260128361092f565b9150610cbd82610c7c565b602082019050919050565b60006020820190508181036000830152610ce181610ca5565b9050919050565b7f496e73756666696369656e742045746865720000000000000000000000000000600082015250565b6000610d1e60128361092f565b9150610d2982610ce8565b602082019050919050565b60006020820190508181036000830152610d4d81610d11565b9050919050565b7f50726f6475637420616c726561647920736f6c64000000000000000000000000600082015250565b6000610d8a60148361092f565b9150610d9582610d54565b602082019050919050565b60006020820190508181036000830152610db981610d7d565b9050919050565b7f53656c6c65722063616e6e6f7420627579207468656972206f776e2070726f6460008201527f7563740000000000000000000000000000000000000000000000000000000000602082015250565b6000610e1c60238361092f565b9150610e2782610dc0565b604082019050919050565b60006020820190508181036000830152610e4b81610e0f565b9050919050565b60008190508160005260206000209050919050565b60006020601f8301049050919050565b600082821b905092915050565b600060088302610eb47fffffffffffffffffffffffffffffffffffffffffffffffffffffffffffffffff82610e77565b610ebe8683610e77565b95508019841693508086168417925050509392505050565b6000819050919050565b6000610efb610ef6610ef1846108b2565b610ed6565b6108b2565b9050919050565b6000819050919050565b610f1583610ee0565b610f29610f2182610f02565b848454610e84565b825550505050565b600090565b610f3e610f31565b610f49818484610f0c565b505050565b5b81811015610f6d57610f62600082610f36565b600181019050610f4f565b5050565b601f821115610fb257610f8381610e52565b610f8c84610e67565b81016020851015610f9b578190505b610faf610fa785610e67565b830182610f4e565b50505b505050565b600082821c905092915050565b6000610fd560001984600802610fb7565b1980831691505092915050565b6000610fee8383610fc4565b9150826002028217905092915050565b61100782610924565b67ffffffffffffffff8111156110205761101f610a95565b5b61102a8254610c4b565b611035828285610f71565b600060209050601f8311600181146110685760008415611056578287015190505b6110608582610fe2565b8655506110c8565b601f19841661107686610e52565b60005b8281101561109e57848901518255600182019150602085019450602081019050611079565b868310156110bb57848901516110b7601f891682610fc4565b8355505b6001600288020188555050505b505050505050565b60006110eb6110e66110e1846109b4565b610ed6565b6109b4565b9050919050565b60006110fd826110d0565b9050919050565b600061110f826110f2565b9050919050565b61111f81611104565b82525050565b600060a08201905061113a6000830188610915565b818103602083015261114c818761097b565b905061115b6040830186610915565b6111686060830185611116565b6111756080830184610a07565b9695505050505050565b7f50726f64756374206e616d652069732072657175697265640000000000000000600082015250565b60006111b560188361092f565b91506111c08261117f565b602082019050919050565b600060208201905081810360008301526111e4816111a8565b9050919050565b7f5072696365206d7573742062652067726561746572207468616e207a65726f00600082015250565b6000611221601f8361092f565b915061122c826111eb565b602082019050919050565b6000602082019050818103600083015261125081611214565b9050919050565b7f4e487b7100000000000000000000000000000000000000000000000000000000600052601160045260246000fd5b6000611291826108b2565b91507fffffffffffffffffffffffffffffffffffffffffffffffffffffffffffffffff82036112c3576112c2611257565b5b600182019050919050565b600060a0820190506112e36000830188610915565b81810360208301526112f5818761097b565b90506113046040830186610915565b6113116060830185610a07565b61131e6080830184610a07565b969550505050505056fea2646970667358221220d83377b999728ae3f7d6f1ec2f6406b5ba985c8f10d009988056e1f4ac9f0bc864736f6c63430008110033",
  "linkReferences": {},
  "deployedLinkReferences": {}
}