{
  "_format": "hh-sol-artifact-1",
  "contractName": "Marketplace",
  "sourceName": "contracts/Marketplace.sol",
  "abi": [
    {
      "anonymous": false,
      "inputs": [
        {
          "indexed": false,
          "internalType": "uint256",
          "name": "id",
          "type": "uint256"
        },
        {
          "indexed": false,
          "internalType": "string",
          "name": "name",
          "type": "string"
        },
        {
          "indexed": false,
          "internalType": "uint256",
          "name": "price",
          "type": "uint256"
        },
        {
          "indexed": false,
          "internalType": "address",
          "name": "seller",
          "type": "address"
        },
        {
          "indexed": false,
          "internalType": "address",
          "name": "buyer",
          "type": "address"
        }
      ],
      "name": "ProductCreated",
      "type": "event"
    },
    {
      "anonymous": false,
      "inputs": [
        {
          "indexed": false,
          "internalType": "uint256",
          "name": "id",
          "type": "uint256"
        },
        {
          "indexed": false,
          "internalType": "string",
          "name": "name",
          "type": "string"
        },
        {
          "indexed": false,
          "internalType": "uint256",
          "name": "price",
          "type": "uint256"
        },
        {
          "indexed": false,
          "internalType": "address",
          "name": "seller",
          "type": "address"
        },
        {
          "indexed": false,
          "internalType": "address",
          "name": "buyer",
          "type": "address"
        }
      ],
      "name": "ProductPurchased",
      "type": "event"
    },
    {
      "inputs": [
        {
          "internalType": "string",
          "name": "name",
          "type": "string"
        },
        {
          "internalType": "uint256",
          "name": "price",
          "type": "uint256"
        }
      ],
      "name": "createProduct",
      "outputs": [],
      "stateMutability": "nonpayable",
      "type": "function"
    },
    {
      "inputs": [],
      "name": "productCount",
      "outputs": [
        {
          "internalType": "uint256",
          "name": "",
          "type": "uint256"
        }
      ],
      "stateMutability": "view",
      "type": "function"
    },
    {
      "inputs": [
        {
          "internalType": "uint256",
          "name": "",
          "type": "uint256"
        }
      ],
      "name": "products",
      "outputs": [
        {
          "internalType": "uint256",
          "name": "id",
          "type": "uint256"
        },
        {
          "internalType": "string",
          "name": "name",
          "type": "string"
        },
        {
          "internalType": "uint256",
          "name": "price",
          "type": "uint256"
        },
        {
          "internalType": "address payable",
          "name": "seller",
          "type": "address"
        },
        {
          "internalType": "address",
          "name": "buyer",
          "type": "address"
        }
      ],
      "stateMutability": "view",
      "type": "function"
    },
    {
      "inputs": [
        {
          "internalType": "uint256",
          "name": "id",
          "type": "uint256"
        }
      ],
      "name": "purchaseProduct",
      "outputs": [],
      "stateMutability": "payable",
      "type": "function"
    }
  ],
  "bytecode": "0x608060405260008055348015601357600080fd5b50611200806100236000396000f3fe60806040526004361061003f5760003560e01c806338e76a03146100445780637acc0b2014610060578063e0f6ef87146100a1578063e9300c6c146100cc575b600080fd5b61005e60048036038101906100599190610706565b6100f5565b005b34801561006c57600080fd5b5061008760048036038101906100829190610706565b6103af565b604051610098959493929190610834565b60405180910390f35b3480156100ad57600080fd5b506100b66104ad565b6040516100c3919061088e565b60405180910390f35b3480156100d857600080fd5b506100f360048036038101906100ee91906109de565b6104b3565b005b600060016000838152602001908152602001600020905060008160030160009054906101000a900473ffffffffffffffffffffffffffffffffffffffff1690506000826000015411801561014f5750600054826000015411155b61018e576040517f08c379a000000000000000000000000000000000000000000000000000000000815260040161018590610a86565b60405180910390fd5b81600201543410156101d5576040517f08c379a00000000000000000000000000000000000000000000000000000000081526004016101cc90610af2565b60405180910390fd5b600073ffffffffffffffffffffffffffffffffffffffff168260040160009054906101000a900473ffffffffffffffffffffffffffffffffffffffff1673ffffffffffffffffffffffffffffffffffffffff1614610268576040517f08c379a000000000000000000000000000000000000000000000000000000000815260040161025f90610b5e565b60405180910390fd5b3373ffffffffffffffffffffffffffffffffffffffff168173ffffffffffffffffffffffffffffffffffffffff16036102d6576040517f08c379a00000000000000000000000000000000000000000000000000000000081526004016102cd90610bf0565b60405180910390fd5b338260040160006101000a81548173ffffffffffffffffffffffffffffffffffffffff021916908373ffffffffffffffffffffffffffffffffffffffff1602179055507f0ec3a2a7db8265630b6b34629ebe9900056ed7ebc18bebe60aa2b33fa345a5948260000154836001018460020154843360405161035b959493929190610d68565b60405180910390a18073ffffffffffffffffffffffffffffffffffffffff166108fc349081150290604051600060405180830381858888f193505050501580156103a9573d6000803e3d6000fd5b50505050565b60016020528060005260406000206000915090508060000154908060010180546103d890610c3f565b80601f016020809104026020016040519081016040528092919081815260200182805461040490610c3f565b80156104515780601f1061042657610100808354040283529160200191610451565b820191906000526020600020905b81548152906001019060200180831161043457829003601f168201915b5050505050908060020154908060030160009054906101000a900473ffffffffffffffffffffffffffffffffffffffff16908060040160009054906101000a900473ffffffffffffffffffffffffffffffffffffffff16905085565b60005481565b60008251116104f7576040517f08c379a00000000000000000000000000000000000000000000000000000000081526004016104ee90610e0e565b60405180910390fd5b6000811161053a576040517f08c379a000000000000000000000000000000000000000000000000000000000815260040161053190610e7a565b60405180910390fd5b60008081548092919061054c90610ec9565b91905055506040518060a0016040528060005481526020018381526020018281526020013373ffffffffffffffffffffffffffffffffffffffff168152602001600073ffffffffffffffffffffffffffffffffffffffff1681525060016000805481526020019081526020016000206000820151816000015560208201518160010190816105da919061109e565b506040820151816002015560608201518160030160006101000a81548173ffffffffffffffffffffffffffffffffffffffff021916908373ffffffffffffffffffffffffffffffffffffffff16021790555060808201518160040160006101000a81548173ffffffffffffffffffffffffffffffffffffffff021916908373ffffffffffffffffffffffffffffffffffffffff1602179055509050507f9f5b5c467d3a9a7c7170af64d0639a513c93ba9c83e358d84b49a0c9b5a8b60660005483833360006040516106b0959493929190611170565b60405180910390a15050565b6000604051905090565b600080fd5b600080fd5b6000819050919050565b6106e3816106d0565b81146106ee57600080fd5b50565b600081359050610700816106da565b92915050565b60006020828403121561071c5761071b6106c6565b5b600061072a848285016106f1565b91505092915050565b61073c816106d0565b82525050565b600081519050919050565b600082825260208201905092915050565b60005b8381101561077c578082015181840152602081019050610761565b60008484015250505050565b6000601f19601f8301169050919050565b60006107a482610742565b6107ae818561074d565b93506107be81856020860161075e565b6107c781610788565b840191505092915050565b600073ffffffffffffffffffffffffffffffffffffffff82169050919050565b60006107fd826107d2565b9050919050565b61080d816107f2565b82525050565b600061081e826107d2565b9050919050565b61082e81610813565b82525050565b600060a0820190506108496000830188610733565b818103602083015261085b8187610799565b905061086a6040830186610733565b6108776060830185610804565b6108846080830184610825565b9695505050505050565b60006020820190506108a36000830184610733565b92915050565b600080fd5b600080fd5b7f4e487b7100000000000000000000000000000000000000000000000000000000600052604160045260246000fd5b6108eb82610788565b810181811067ffffffffffffffff8211171561090a576109096108b3565b5b80604052505050565b600061091d6106bc565b905061092982826108e2565b919050565b600067ffffffffffffffff821115610949576109486108b3565b5b61095282610788565b9050602081019050919050565b82818337600083830152505050565b600061098161097c8461092e565b610913565b90508281526020810184848401111561099d5761099c6108ae565b5b6109a884828561095f565b509392505050565b600082601f8301126109c5576109c46108a9565b5b81356109d584826020860161096e565b91505092915050565b600080604083850312156109f5576109f46106c6565b5b600083013567ffffffffffffffff811115610a1357610a126106cb565b5b610a1f858286016109b0565b9250506020610a30858286016106f1565b9150509250929050565b7f496e76616c69642070726f647563742049440000000000000000000000000000600082015250565b6000610a7060128361074d565b9150610a7b82610a3a565b602082019050919050565b60006020820190508181036000830152610a9f81610a63565b9050919050565b7f496e73756666696369656e742045746865720000000000000000000000000000600082015250565b6000610adc60128361074d565b9150610ae782610aa6565b602082019050919050565b60006020820190508181036000830152610b0b81610acf565b9050919050565b7f50726f6475637420616c726561647920736f6c64000000000000000000000000600082015250565b6000610b4860148361074d565b9150610b5382610b12565b602082019050919050565b60006020820190508181036000830152610b7781610b3b565b9050919050565b7f53656c6c65722063616e6e6f7420627579207468656972206f776e2070726f6460008201527f7563740000000000000000000000000000000000000000000000000000000000602082015250565b6000610bda60238361074d565b9150610be582610b7e565b604082019050919050565b60006020820190508181036000830152610c0981610bcd565b9050919050565b7f4e487b7100000000000000000000000000000000000000000000000000000000600052602260045260246000fd5b60006002820490506001821680610c5757607f821691505b602082108103610c6a57610c69610c10565b5b50919050565b60008190508160005260206000209050919050565b60008154610c9281610c3f565b610c9c818661074d565b94506001821660008114610cb75760018114610ccd57610d00565b60ff198316865281151560200286019350610d00565b610cd685610c70565b60005b83811015610cf857815481890152600182019150602081019050610cd9565b808801955050505b50505092915050565b6000819050919050565b6000610d2e610d29610d24846107d2565b610d09565b6107d2565b9050919050565b6000610d4082610d13565b9050919050565b6000610d5282610d35565b9050919050565b610d6281610d47565b82525050565b600060a082019050610d7d6000830188610733565b8181036020830152610d8f8187610c85565b9050610d9e6040830186610733565b610dab6060830185610d59565b610db86080830184610825565b9695505050505050565b7f50726f64756374206e616d652069732072657175697265640000000000000000600082015250565b6000610df860188361074d565b9150610e0382610dc2565b602082019050919050565b60006020820190508181036000830152610e2781610deb565b9050919050565b7f5072696365206d7573742062652067726561746572207468616e207a65726f00600082015250565b6000610e64601f8361074d565b9150610e6f82610e2e565b602082019050919050565b60006020820190508181036000830152610e9381610e57565b9050919050565b7f4e487b7100000000000000000000000000000000000000000000000000000000600052601160045260246000fd5b6000610ed4826106d0565b91507fffffffffffffffffffffffffffffffffffffffffffffffffffffffffffffffff8203610f0657610f05610e9a565b5b600182019050919050565b60006020601f8301049050919050565b600082821b905092915050565b600060088302610f5e7fffffffffffffffffffffffffffffffffffffffffffffffffffffffffffffffff82610f21565b610f688683610f21565b95508019841693508086168417925050509392505050565b6000610f9b610f96610f91846106d0565b610d09565b6106d0565b9050919050565b6000819050919050565b610fb583610f80565b610fc9610fc182610fa2565b848454610f2e565b825550505050565b600090565b610fde610fd1565b610fe9818484610fac565b505050565b5b8181101561100d57611002600082610fd6565b600181019050610fef565b5050565b601f8211156110525761102381610c70565b61102c84610f11565b8101602085101561103b578190505b61104f61104785610f11565b830182610fee565b50505b505050565b600082821c905092915050565b600061107560001984600802611057565b1980831691505092915050565b600061108e8383611064565b9150826002028217905092915050565b6110a782610742565b67ffffffffffffffff8111156110c0576110bf6108b3565b5b6110ca8254610c3f565b6110d5828285611011565b600060209050601f83116001811461110857600084156110f6578287015190505b6111008582611082565b865550611168565b601f19841661111686610c70565b60005b8281101561113e57848901518255600182019150602085019450602081019050611119565b8683101561115b5784890151611157601f891682611064565b8355505b6001600288020188555050505b505050505050565b600060a0820190506111856000830188610733565b81810360208301526111978187610799565b90506111a66040830186610733565b6111b36060830185610825565b6111c06080830184610825565b969550505050505056fea26469706673582212207360730cbb7941c1f64d6343398e9c8fabe875a1ad50d3e678413edc509bf0b564736f6c634300081b0033",
  "linkReferences": {},
  "deployedLinkReferences": {}
}